:020000040800F2
:1000000038060020C11A0008B5190008B719000801
:10001000B9190008BB190008BD190008000000004C
:10002000000000000000000000000000BF190008F0
:10003000C119000800000000C3190008C519000814
:10004000F51A0008F91A0008FD1A0008011B00083B
:10005000051B0008091B00080D1B0008111B0008E8
:10006000151B0008191B00081D1B0008211B000898
:10007000251B0008291B00082D1B0008311B000848
:10008000351B0008391B00083D1B0008411B0008F8
:10009000451B0008491B00084D1B0008511B0008A8
:1000A000551B0008591B00085D1B0008611B000858
:1000B000651B0008691B00086D1B0008711B000808
:1000C000751B0008791B00087D1B0008811B0008B8
:1000D000851B0008D3190008D9190008DF1900088A
:1000E000891B00088D1B0008911B0008951B000848
:1000F000991B0008000000009D1B0008A11B0008C0
:100100000000000000000000A51B0008A91B00085B
:10011000AD1B0008B11B0008B51B00080000000063
:10012000B91B00082DE9F84F04003BD0DFF8047636
:10013000BD68BE682078C10705F00C0506F480365E
:100140000CD5082D04D00C2D08BFB6F5803F39D151
:100150003868810302D56068002823D02078DFF852
:10016000E495810712D5042D03D00C2D08BF002E75
:1001700061D13868810702D5E06801281DD178680F
:10018000216920F4F85040EA012078602078C10607
:1001900040F13181002D40F097803868810503D50A
:1001A000A069002800F02381206A796801F4604189
:1001B00081425FD200F085FA002840F0188100F0FB
:1001C00082F968E06068012804D1386840F4803022
:1001D000386013E008B9386809E00528386806D1A6
:1001E00040F480203860396841F4803105E020F423
:1001F00080303860396821F480213960606868B1E6
:1002000000F0B4FA804638688103A7D400F0AEFA53
:10021000A0EB08006528F6D3032052E100F0A6FA0F
:1002200080463868810399D500F0A0FAA0EB080059
:100230006528F6D3F0E7E06870B10121C9F8001035
:1002400000F094FA06463868810798D400F08EFAD8
:10025000801B0228F7D9DFE7C9F8000000F086FA12
:1002600006463968880791D500F080FA801B02287D
:10027000F7D9D1E7796821F460410843786078685C
:10028000E16920F07F4040EA01607860206A00F078
:1002900018FA002891D1216ABA68490BC2F30312F7
:1002A0000120491C8840DFF8A014DFF88C34895CF9
:1002B000C003C8401860DFF88804006800F05CFAEA
:1002C000010000F09880FCE0A069B0B10121C9F8FC
:1002D000201000F04BFA06463868810500F189804D
:1002E00000F044FA801B0228F6D995E700F03EFAA8
:1002F000801B022840F28C808EE7C9F8200000F0B5
:1003000035FA06463868810575D500F02FFA801B4E
:100310000228F7D980E7086000F028FA0646786BD3
:10032000810779D500F022FA801B0228F7D973E7FC
:1003300008B9786B09E00528786B06D140F4806035
:100340007863786B40F4807005E020F48070786307
:10035000786B20F48060786341F28936A06868B1D8
:1003600000F004FA8246786B810500F1838000F08A
:10037000FDF9A0EB0A00B042F5D34DE700F0F6F925
:100380008246786B810575D500F0F0F9A0EB0A0084
:10039000B042F6D340E700F0E9F9401B022879D9D2
:1003A0003AE700F0E3F9001B022840F2858033E7CA
:1003B00000F097F804463868810140F1818000F030
:1003C000D5F9001B0228F6D926E701280FD0B86816
:1003D000A26A00F48031914202BF00F47011E26A17
:1003E000914202BF00F44000216B884268D0012096
:1003F00067E000F068F8207801070DD56069DFF844
:100400004C13002887D001220A6000F0AFF906469D
:10041000786B81077FF56AAF2078410731D5786A1C
:10042000C1004FF000080AD4786A40F0805078622A
:100430004FF00108786A00F0805000900098DFF8D3
:1004400010633068C10510D4306840F480703060AB
:1004500000F08CF983463068C10506D400F086F9B7
:10046000A0EB0B006528F6D3D6E6A06801287FF440
:100470005FAF66E7B8F1000F03D0786A20F08050D4
:100480007862606AE0B10C2D9FD0022890D100F014
:1004900028F80546386881013FF57DAFBA68A16A42
:1004A000E06A22F47D020A43216B02430A43BA60E8
:1004B000012000F017F80446386881017FF571AF1C
:1004C0000020BDE8F28F7968206A21F46041014381
:1004D00079607968E06921F07F4141EA00617960E3
:1004E00070470020C9F8600000F040B92DE9F843DA
:1004F0000400894627D0DFF85C62306800F0010014
:10050000484502D200F08EF81DD12078DFF8245241
:10051000810705D5AA68A06822F0F0020243AA600C
:100520002178C8076AD56068022802D129688A0341
:1005300008E0032802D129688A0103E0012829681C
:1005400002D18A0702D461E08A055FD5A9688908CB
:1005500040EA8100A86041F2893800F007F90746B7
:10056000606802280BD1A86800F00C00082845D06C
:1005700000F0FCF8C01B4045F5D303203CE0032805
:100580000AD1A86800F00C000C2837D000F0EEF873
:10059000C01B4045F5D3F0E7012839D1A86800F029
:1005A0000C0004282AD000F0E1F8C01B4045F5D328
:1005B000E3E72078410705D5AA68E06822F4E06205
:1005C0000243AA602178080706D5A968206921F4AA
:1005D000605141EAC001A96000F035F8AA685A49A3
:1005E000554BC2F30312895CC8401860BDE8F24362
:1005F0005348006800F0C0B8BDE8F283306800F0EE
:1006000001008145D5D200F00DF8D2D00120F3E7EA
:10061000A86810F00C0FF1D000F0A8F8C01B4045FE
:10062000F6D3AAE7B9F1010F03D1306840F0040016
:1006300030603168490849EA41013160306800F0B2
:1006400001004845704730B544493C484A68444B2E
:1006500002F00C04042C21D0082C02D00C2C02D067
:1006600013E0184630BD3F4DC2F38344C2F38152BC
:100670002C5D4968521CCD0303D56343B3FBF2F0F4
:1006800030BD6043B0FBF2F030BD0868400B00F0B5
:1006900007000121401C01FA00F0C00330BD2648CC
:1006A0002D4A006813683049C3F3022206E022484D
:1006B000294A006813682C49C3F3C222895CC840E8
:1006C000704778B5244B23491C68002214F0F00FC2
:1006D00022D1DD691E4CEE0003D5246804F4C05419
:1006E0000FE0DD6945F08055DD61DD6905F080557D
:1006F0000095009D2468DD6925F0805504F4C05400
:10070000DD61B4F5C05F08BFB0F5404F04D10868A3
:1007100040F00400012208600B685B0842EA4303D2
:100720000B60086800F00100904201D0012072BD0A
:10073000002072BD003802400C0000200024F400AC
:100740000400002000004742A41900088006474228
:1007500000700040003C024008380240043802406B
:1007600000127A0098190008EC1A00080148006885
:10077000704700BF0000002070B50E4E0446B06800
:100780000025A0B14FF47A710B4AB1FBF0F110686B
:10079000B0FBF1F000F054F848B9102C07D2002259
:1007A00021464FF0FF3000F023F8746000E001258F
:1007B000284670BD000000200C0000200901020046
:1007C00002D4294881547047284B02F00F021A4482
:1007D00002F8041C7047264B19684FF6FF0200020E
:1007E000114000F4E0600843224908431860704754
:1007F00038B51F4B1C68C4F30223C3F10704052C52
:1008000028BF04241D1D072D34BF0023DB1E012536
:1008100005FA04F4641E2140994005FA03F35B1EB7
:100820001A401143BDE83440C8E7010007D4012253
:1008300000F01F01104B8A40400943F82020704708
:1008400010B5401EB0F1807F01D3012010BD0B4CCC
:1008500060600F214FF0FF30FFF7B0FF0021A16073
:1008600007202060002010BD00E400E018ED00E04B
:100870000CED00E00000FA0500E100E010E000E00F
:10088000704730B4002513E050F8042BD30744BF61
:10089000A9F101039A18091F042942F8045BFAD24E
:1008A00013468C0744BF15809B1CC90748BF1D70A9
:1008B00050F8041B0029E7D130BC704738B504005C
:1008C00001D1012032BD00F021F808B900F022F872
:1008D00000F012F800F023F8FFE7416100F001F8A2
:1008E00032BD2068C16841F40051C16000206860D9
:1008F00020216970A9707047242068702068C16841
:1009000021F40051C160204600F01DB904F1380502
:100910006878704700212970204600F0A1B920684E
:10092000016921F4904101612068416921F02A01A7
:100930007047416921F040014161606B704738B5F3
:10094000044625682968EA686B6911F00F0007D131
:1009500088065DD593065BD52046BDE83240A9E008
:10096000D80702D412F4907F52D0C80705D5D50518
:1009700003D5E06B40F00100E063480705D5DD07D3
:1009800003D5E06B40F00200E063880705D5DD0782
:1009900003D5E06B40F00400E063080705D5DB07F2
:1009A00003D5E06B40F00800E063E06B00286CD0FA
:1009B000880604D5910644BF204600F07BF82068E5
:1009C0004069E16B0A0701D440061BD5204600F0C0
:1009D0005DF8206841694A060FD5FFF7AAFF60B1AC
:1009E0000FF2C5014163606B00F0CAF900284CD0DA
:1009F000606B416BBDE8344008472046BDE832409B
:100A000000F0EBB9204600F0E8F90020E06331BDCA
:100A100008062AD5130628D594F83900212834D1A0
:100A2000A068B0F5805F206A0BD10188C1F308018E
:100A3000696020690028206A0CBF811C411C21626A
:100A400003E0411C216200786860E08C401EE08475
:100A500080B2D0B92068C16821F08001C1602068EF
:100A6000C16841F04001C16031BD48060DD5510655
:100A70000BD5E86820F04000E860202184F83910A8
:100A80002046BDE8324000F0A9B931BD0168CA680E
:100A900022F49072CA6001684A69520852004A61A1
:100AA000202180F83A107047406A0021C185C18436
:100AB00000F093B980B590F83A10222941D18168AD
:100AC000B1F5805F12D101690368826A0029596813
:100AD00005D1C1F308011180826A911C04E001F084
:100AE000FF011180826A511C81620FE001690029B7
:100AF000816A04D14A1C826203685A6805E04A1C74
:100B0000826203685A6802F07F020A70C18D491E32
:100B1000C18589B299B90168CA6822F02002CA6009
:100B20000168CA6822F48072CA6001684A69520882
:100B300052004A61202180F83A1000F050F900205C
:100B400002BD022002BD70B5044664252268116909
:100B5000E06821F44051014311611926D36825480A
:100B6000A168034020690B4361690343E0690B43BB
:100B70000343D3605169A06921F44071014351617D
:100B80001D48E169B1F5004F18D1824202D1FFF74B
:100B90008EFD01E0FFF783FD46436068400000F0F2
:100BA0002DF8ED0032356420B5FBF0F0420002F480
:100BB000F87202EB011200F0070016E0824202D147
:100BC000FFF775FD01E0FFF76AFD464360688000AE
:100BD00000F014F82D0132356420B5FBF0F000F080
:100BE000F00202EB011200F00F002168801888600B
:100BF00070BD0000F369FFFF00380140B6FBF0F064
:100C00006421B0FBF1F105FB1105704780B5534835
:100C1000534900F00BF800B116E001BD80B5514812
:100C2000514900F003F800B10EE001BD01604FF43E
:100C3000E13200230C2142608360C36003614161A3
:100C40008361C361FFF73ABEBDE8014000F016B909
:100C500080B546484649FFF7E9FF00B1F4E701BD1A
:100C600010B586B004466846142100F009F92268E0
:100C70003B4B404840499A4213D14A6842F4804273
:100C80004A604A6802F4804200F04FF84FF4C062B4
:100C900000F052F8002200212520FFF7A9FD2520B1
:100CA0003FE0314B9A4212D18A6842F400328A60A6
:100CB0008A6802F4003200F038F80C2200F03CF8A8
:100CC000002200212620FFF793FD262029E0284856
:100CD000824228D18A6842F480228A60886800F4BF
:100CE0008020059005980A6842F008020A600222F6
:100CF000096801F0080105914FF4407105981F48FB
:100D00000091019201210291032207210491039293
:100D1000694600F0B9F8002200212720FFF768FD9E
:100D20002720FFF782FD06B010BD0592059A0B68DB
:100D300043F001030B607047096801F00101059160
:100D400002230599009201930122029203230722B4
:100D500003930492694600F097B800006C010020EC
:100D600000380140AC01002000440040EC010020AC
:100D700000480040000002401C380240000C0240C5
:100D800038B590F821200024022A00F1340103D064
:100D900004204860012413E000F014F815686D0881
:100DA0006D00156001220B7B8D6803F01C039A40D7
:100DB0006A6000F00EF880F82040096801B18847A9
:100DC000204632BD0268136823F00E0313600268E8
:100DD0007047012280F821207047704770477047A4
:100DE00080B500F043F900F013F800F04FF900F07F
:100DF0004BFA00F0D7FA00F0F9FA00F009FB00F026
:100E000027FBFFF703FFFFF709FFFFF721FFFEE7CF
:100E100080B592B005A8342100F032F8684614215C
:100E200000F02EF81448016821F4C05141F400612B
:100E30000160032201210691089105921021099178
:100E400002224FF480310E920F914FF440224FF462
:100E500080011092119105A8FFF764F90321019117
:100E60000F20009080220021029203910491684695
:100E7000FFF73CFB13B000BD00700040704700005E
:100E8000002200F085BB00002DE9F84700266D4ADE
:100E90000F230446884632E06B4DAC4214BF072551
:100EA00006258D4045EA0E054CF82750C743674993
:100EB0000D6800F0BDF8ED0348BF40EA0C0CC1F826
:100EC00000C04D6800F0B4F8AD0348BF40EA0C0C18
:100ED000C1F804C08D6800F0ABF8ED0248BF40EAED
:100EE0000C0CC1F808C0CD6807EA050CD8F80470EE
:100EF000BD0248BF40EA0C0CC1F80CC0761CD8F803
:100F0000001031FA06F000F091800127B74017EA8F
:100F10000100F3D0D8F80450B100022D18BF122DF3
:100F200012D1F50804EB850C01F01C05DCF820E07B
:100F3000D8F810A003FA05F92EEA090E0AFA05F509
:100F400045EA0E05CCF820504FEA460C4FF0030E50
:100F5000256898F804900EFA0CFE6FEA0E0E09F060
:100F600003090EEA050509FA0CF949EA05052560A9
:100F7000D8F80450012D18BF022D03D0112D18BF31
:100F8000122D13D1A568D8F80C900EEA050509FAC0
:100F90000CF949EA0505A560656825EA0707D8F850
:100FA0000450C5F30015B5402F436760E7680EEAAB
:100FB0000705D8F8087007FA0CF73D43E560D8F844
:100FC0000450EF009AD51568DFF884C045F001059C
:100FD000156001F00C01176807F00107009703FA8C
:100FE00001FE009FB7085CF8275025EA0E0E194D48
:100FF000AC4208BF002518D0174DAC4208BF0125F0
:1010000013D0164DAC4208BF02250ED0144DAC4291
:1010100008BF032509D0134DAC4208BF042504D0F6
:10102000114DAC427FF438AF05253AE7BDE8F187B2
:1010300007EA050CD8F80450704702B90904816129
:1010400070470000203802400018024000040140B0
:101050000800014000000240000402400008024075
:10106000000C02400010024000140240032010B5A2
:10107000FFF7B1FB0020FFF77FFB0024002814BF1F
:10108000012400F09FFA204610BD00002DE9F84F22
:1010900086B068461421FFF7F3FE6948DFF8A481A3
:1010A0000468DFF8A49144F01004046040F2E33BCC
:1010B0000168664C01F01001059149F2120505998D
:1010C000026842F0040202604FF60326036803F050
:1010D0000403059341F670470599026842F0200227
:1010E00002604CF66F4A036803F0200305930599EC
:1010F000026842F001020260036803F001030593F5
:101100000599026842F002020260036803F00203DC
:1011100005930599026842F0080202600022006807
:1011200000F008000590594605982046FFF785FF16
:10113000002229464648FFF780FF002231464046FC
:10114000FFF77BFF002239464846FFF776FF002273
:1011500051464048FFF771FF002204213E48FFF747
:101160006CFF4FF48F600021009001910291404686
:101170006946FFF789FE42F20C00002100900191C0
:10118000029120466946FFF77FFE00F069F8CDF82E
:1011900000B069462046FFF777FE00F061F8009541
:1011A00069462B48FFF770FE102000F05FF82046DC
:1011B000FFF76AFE042000F060F84846FFF764FE7F
:1011C0004FF4807000F052F84046FFF75DFE00F0EB
:1011D00047F8009669464046FFF756FE009700F034
:1011E0003FF869464846FFF74FFE00F039F8CDF862
:1011F00000A069461748FFF747FE4FF4106000F063
:101200003CF81348FFF740FE042100910122002121
:1012100002910391019269460F48FFF735FE902035
:1012200000F02BF80B48FFF72FFE4FF462700B49CC
:1012300000F01DF84846FFF727FE07B0BDE8F08F25
:101240001C38024000100240000402400008024026
:1012500000000240000C0240001402400000111087
:101260000120019000220292039270470321009016
:10127000019100220292694670470021009001917D
:1012800002916946704700003EB568460021002281
:10129000002380E80E004FF400303C4C6160A160F8
:1012A000E16021616161A1612162E061012104F1DC
:1012B0002400374D416002701021037201614261C8
:1012C00002762560204600F09FF908B1FFF7D6FDB1
:1012D000002001210090019102906946204600F013
:1012E00039FA08B1FFF7CAFD37BD38B586B00446F4
:1012F00068461421FFF7C4FD2468254DAC423BD15C
:101300002448416841F400714160416801F4007172
:1013100005910599026842F001020260036803F03A
:10132000010305930599026842F002020260036816
:1013300003F0020305930599026842F0100202606F
:101340000121006800F01000059003220598124862
:1013500000910192002102916946FFF795FD44F248
:10136000030000F00BF80D48FFF78EFD802000F021
:1013700005F80B48FFF788FD07B030BD032100904A
:101380000191002202926946704700001801002076
:10139000002401401C3802400000024000040240CA
:1013A0000010024080B50E480E49016000F07AFA44
:1013B00018B1BDE80140FFF761BD01BD81B0006813
:1013C0000849884209D10848026842F48052026004
:1013D000006800F480500090009801B07047000051
:1013E0002C020020003002401C38024080B55E48CC
:1013F0005E4901604FF48272426001210222026163
:10140000416100F035F800F03AF800B11CE001BD90
:1014100080B55748574901604FF4827200214260FD
:10142000C16001614161C1610162416281624FF449
:1014300000434FF400720A2183608261C16200F0B0
:1014400043FA00B100E001BDBDE80140FFF716BD61
:1014500080B54948494901604FF48272426000F00A
:1014600007F80361436100F00AF800B1ECE701BD41
:1014700000234FF400720A218360C36070478261C9
:10148000C361036243628362C16200F01DBA10B59A
:1014900086B0044668461421FFF7F2FC2168334CFD
:1014A0003748A14217D1416841F4805141604168F9
:1014B00001F4805105910599026842F00102026031
:1014C000E021006800F001000590022205982D48F7
:1014D00000F043F83AE0274A914218D1816841F47C
:1014E00080418160816801F480410591059902681D
:1014F00042F0020202604FF42041006800F0020056
:10150000059002220598204800F027F81EE01B4AAB
:10151000914220D1816841F400418160816801F4E9
:10152000004105910599026842F0040202604FF4FF
:10153000E051006800F0040005900222059813486D
:10154000009101920021029103220621049103924D
:101550006946FFF799FC06B010BD00910192002189
:101560000291032205217047100000200030014045
:101570006800002000380040C0000020003C00400F
:101580001C380240000002400004024000080240F3
:1015900000B500BF130096469446103928BFA0E856
:1015A0000C50FAD85FEA417C28BF0CC048BF40F815
:1015B000042BC90728BF20F8022B48BF00F8012BD5
:1015C00000BD00000F4881B0416841F0004141601A
:1015D000416801F0004100910099026842F0010267
:1015E0000260036803F0010300930099426842F02F
:1015F00080524260406800F080500090009801B036
:10160000704700BF20380240F8B5044600250CB9E9
:101610000120F2BD04F14806706878B9B5603070F9
:10162000DFF85402016841F001010160006800F038
:101630000100009000982046FFF757FE7068C10631
:1016400000F17F807068DFF8341220F4885040F099
:101650000200706004F124030A68606822F44032DA
:1016600002430A606169E2681F7E18780A43216AB2
:1016700042EA47221F690A43102F42EA400202D081
:1016800059690F433A4327683968490628D4A16944
:10169000D4F808E00A432169B1F5807F16BF01291B
:1016A0004FF4807CAC46E16941EA0E014CEA010C42
:1016B000197A01290DD138B9D868401E400340F489
:1016C000006040EA0C0C04E0706840F0200000F07C
:1016D0003BF87968DFF8A80101404CEA0100786026
:1016E0002168DFF8A0018F68074017438F602069E9
:1016F000B0F5807F18BF012808D12068016B5B68B6
:1017000021F0F8715B1E41EA035103E02068016B90
:1017100021F0F8710163DFF8700121688B680340E4
:10172000934207D1B560706820F0020040F00100DC
:10173000706007E0706820F0020040F0100000F0D8
:1017400003F801252846F2BD7060B06840F0010042
:10175000B060704778B502460020009092F848309B
:10176000012B01D1022072BD012082F848001F2404
:101770004D680B681068072D07D26D1E05EB8505B7
:10178000066C00F073F8036424E00D2D07D2ED1F02
:1017900005EB8505C66B00F069F8C3631AE0132DED
:1017A00007D20D3D05EB8505866B00F05FF883637E
:1017B00010E0192D07D2133D05EB8505466B00F0AF
:1017C00055F8436306E0193D05EB8505066B00F00F
:1017D0004DF8036307250C688B680A2C06D204EBCE
:1017E0004404466900F03CF843611AE0142C07D227
:1017F0000A3C04EB4404066900F032F8036110E08F
:101800001E2C07D2143C04EB4404C66800F028F8F0
:10181000C36006E01E3C04EB4404C66D00F020F8F3
:10182000C3650868102818BF112814D1134803682D
:101830001C0210D4036843F40003036008681028F6
:1018400009D11249124C0B68B3FBF4F40A2044434B
:10185000009400F01FF8002182F84810002072BDAB
:10186000A54026EA0505A3402B437047AC4026EA75
:101870000404AB4023437047203802400427014052
:10188000FF16FCFC89F1FFC0FEFF80BF0C000020AA
:1018900040420F0002E00098401E0090009800288F
:1018A000F9D1704710B5040001D1012010BD607955
:1018B00020B9002121712046FFF780FD02206071D0
:1018C00001216171002010BD38B5040001D1012053
:1018D00032BD0020A06204F15005687820B90021D3
:1018E00029702046FFF7D3FD0220687000F027F82A
:1018F0006268A168E06823680A432169024360695D
:101900000A43A169024301F40071E0690A43216AB4
:101910000243A06A0A4302431A60A169606A22680E
:10192000090C01F00401014351602068C16921F4F0
:101930000061C161002068600121697032BD2068CA
:10194000016821F0400101607047000010B50E4AA7
:101950000E49106840F48070106093680C480B408A
:101960009360146804401460116821F480211160B0
:101970000021906820F47D009060D1604FF00060FD
:10198000044A106010BD0000003802400CC0FF88FF
:10199000FEFFFEEE08ED00E0030406080C10182020
:1019A00030000000000000000000000001020304FD
:1019B000060708097047FEE7FEE7FEE7FEE7704707
:1019C0007047704780B500F013F8BDE80140FEF79E
:1019D00057BF0448FEF7B3BF0348FEF7B0BF034844
:1019E000FEF7ADBF6C010020AC010020EC0100202F
:1019F00002490A68886882180A607047000000205F
:101A000030B450F8041B79B10268436802440830CE
:101A1000DC0744BFA9F10104E31852F8045B43F862
:101A2000045B091FF9D1ECE730BC704710B50749DA
:101A300079441831064C7C44163404E00A68081DC9
:101A4000114488470146A142F8D110BD08000000AA
:101A5000280000002FEEFFFF2402000010000020ED
:101A6000000000009DFFFFFF100000006400000068
:101A7000000000200000000000F00DF8002801D058
:101A8000FFF7D4FFAFF300800020AFF30080FFF733
:101A9000A7F900F002F80120704700F001B800003B
:101AA0000746384600F002F8FBE7000080B5AFF3C8
:101AB0000080024A11001820ABBEFBE7260002009E
:101AC00001488047014800474D190008E11A000805
:101AD00000000000100000000100000068FF1F006F
:101AE000AFF30080AFF30080FFF7C6FF00000000F7
:101AF00001020304FFF7FEBFFFF7FEBFFFF7FEBFC3
:101B0000FFF7FEBFFFF7FEBFFFF7FEBFFFF7FEBF09
:101B1000FFF7FEBFFFF7FEBFFFF7FEBFFFF7FEBFF9
:101B2000FFF7FEBFFFF7FEBFFFF7FEBFFFF7FEBFE9
:101B3000FFF7FEBFFFF7FEBFFFF7FEBFFFF7FEBFD9
:101B4000FFF7FEBFFFF7FEBFFFF7FEBFFFF7FEBFC9
:101B5000FFF7FEBFFFF7FEBFFFF7FEBFFFF7FEBFB9
:101B6000FFF7FEBFFFF7FEBFFFF7FEBFFFF7FEBFA9
:101B7000FFF7FEBFFFF7FEBFFFF7FEBFFFF7FEBF99
:101B8000FFF7FEBFFFF7FEBFFFF7FEBFFFF7FEBF89
:101B9000FFF7FEBFFFF7FEBFFFF7FEBFFFF7FEBF79
:101BA000FFF7FEBFFFF7FEBFFFF7FEBFFFF7FEBF69
:0C1BB000FFF7FEBFFFF7FEBFFFF7FEBF10
:0400000508001AE1F4
:00000001FF
